:100000000C942A000C9447000C9447000C94470071
:100010000C9447000C9447000C9447000C94470044
:100020000C9447000C9447000C9447000C9469050D
:100030000C9447000C9447000C9447000C94470024
:100040000C9447000C9447000C9447000C94470014
:100050000C94470011241FBECFE5D4E0DEBFCDBF16
:1000600010E0A0E6B0E0EAE6FBE002C005900D92E9
:10007000A036B107D9F720E0A0E6B0E001C01D929C
:10008000AF36B207E1F70E945D050C94B3050C94FE
:1000900000001FBC82E08EBD0895813161F46111C2
:1000A00004C089B7826089BF31C0613079F589B7F2
:1000B0008D7F89BF2BC0873061F4611104C089B77F
:1000C000816089BF23C0613009F589B78E7F89BF00
:1000D0001DC0893041F4611102C0579A17C06130C8
:1000E000A9F4579813C08B3041F4611102C0569A9D
:1000F0000DC0613059F4569809C08A3039F4611145
:1001000002C0559A03C0613009F455987894089557
:1001100081111BC061110BC0411103C0D098D89A46
:100120000895413009F08BC3D098D8980895613074
:1001300009F085C3411103C0D09AD89A089541307F
:1001400009F07DC3D09AD89808958130D9F461110F
:100150000BC0411103C0D198D99A0895413009F0DC
:100160006EC3D198D9980895613009F068C34111E0
:1001700003C0D19AD99A0895413009F060C3D19A49
:10018000D99808958230D9F461110BC0411103C090
:10019000D298DA9A0895413009F051C3D298DA988A
:1001A0000895613009F04BC3411103C0D29ADA9A25
:1001B0000895413009F043C3D29ADA980895833004
:1001C000D9F461110BC0411103C0D398DB9A089593
:1001D000413009F034C3D398DB980895613009F0B9
:1001E0002EC3411103C0D39ADB9A0895413009F020
:1001F00026C3D39ADB9808958430D9F461110BC0DB
:10020000411103C0D498DC9A0895413009F017C316
:10021000D498DC980895613009F011C3411103C0EE
:10022000D49ADC9A0895413009F009C3D49ADC9835
:1002300008958530D9F461110BC0411103C0D598E0
:10024000DD9A0895413009F0FAC2D598DD980895F5
:10025000613009F0F4C2411103C0D59ADD9A0895C6
:10026000413009F0ECC2D59ADD9808958630D9F472
:1002700061110BC0411103C0D698DE9A0895413038
:1002800009F0DDC2D698DE980895613009F0D7C232
:10029000411103C0D69ADE9A0895413009F0CFC2C9
:1002A000D69ADE9808958730D9F461110BC04111B8
:1002B00003C0D798DF9A0895413009F0C0C2D7989B
:1002C000DF980895613009F0BAC2411103C0D79A8E
:1002D000DF9A0895413009F0B2C2D79ADF980895A5
:1002E0008830D9F461110BC0411103C0B898C09A8D
:1002F0000895413009F0A3C2B898C09808956130BC
:1003000009F09DC2411103C0B89AC09A08954130C6
:1003100009F095C2B89AC09808958930D9F461114E
:100320000BC0411103C0B998C19A0895413009F03A
:1003300086C2B998C1980895613009F080C2411110
:1003400003C0B99AC19A0895413009F078C2B99AA8
:10035000C19808958A30D9F461110BC0411103C0CE
:10036000BA98C29A0895413009F069C2BA98C29801
:100370000895613009F063C2411103C0BA9AC29A6C
:100380000895413009F05BC2BA9AC29808958B3043
:10039000D9F461110BC0411103C0BB98C39A0895F1
:1003A000413009F04CC2BB98C3980895613009F000
:1003B00046C2411103C0BB9AC39A0895413009F067
:1003C0003EC2BB9AC39808958C30D9F461110BC01A
:1003D000411103C0BC98C49A0895413009F02FC25E
:1003E000BC98C4980895613009F029C2411103C036
:1003F000BC9AC49A0895413009F021C2BC9AC498AD
:1004000008958D30D9F461110BC0411103C0BD981E
:10041000C59A0895413009F012C2BD98C598089553
:10042000613009F00CC2411103C0BD9AC59A08950C
:10043000413009F004C2BD9AC59808958E30D9F4B0
:1004400061110BC0411103C0BE98C69A0895413096
:1004500009F0F5C1BE98C6980895613009F0EFC162
:10046000411103C0BE9AC69A0895413009F0E7C110
:10047000BE9AC69808958F30D9F461110BC041110E
:1004800003C0BF98C79A0895413009F0D8C1BF98FA
:10049000C7980895613009F0D2C1411103C0BF9AD5
:1004A000C79A0895413009F0CAC1BF9AC798089504
:1004B0008031D9F461110BC0411103C0A098A89AF2
:1004C0000895413009F0BBC1A098A8980895613003
:1004D00009F0B5C1411103C0A09AA89A089541300E
:1004E00009F0ADC1A09AA89808958131D9F461119D
:1004F0000BC0411103C0A198A99A0895413009F099
:100500009EC1A198A9980895613009F098C1411140
:1005100003C0A19AA99A0895413009F090C1A19A07
:10052000A99808958231D9F461110BC0411103C01B
:10053000A298AA9A0895413009F081C1A298AA9878
:100540000895613009F07BC1411103C0A29AAA9AB3
:100550000895413009F073C1A29AAA980895833191
:10056000D9F461110BC0411103C0A398AB9A08954F
:10057000413009F064C1A398AB980895613009F047
:100580005EC1411103C0A39AAB9A0895413009F0AE
:1005900056C1A39AAB9808958431D9F461110BC068
:1005A000411103C0A498AC9A0895413009F047C1A5
:1005B000A498AC980895613009F041C1411103C07D
:1005C000A49AAC9A0895413009F039C1A49AAC9824
:1005D00008958531D9F461110BC0411103C0A5986C
:1005E000AD9A0895413009F02AC1A598AD980895B3
:1005F000613009F024C1411103C0A59AAD9A089554
:10060000413009F01CC1A59AAD9808958631D9F4FE
:1006100061110BC0411103C0A698AE9A08954130F4
:1006200009F00DC1A698AE980895613009F007C190
:10063000411103C0A69AAE9A0895413009F0FFC057
:10064000A69AAE9808958731D9F461110BC0411173
:1006500003C0A798AF9A0895413009F0F0C0A79859
:10066000AF980895613009F0EAC0411103C0A79A1C
:10067000AF9A0895413009F0E2C0A79AAF98089563
:100680008831D9F461110BC0411103C08898909A48
:100690000895413009F0D3C088989098089561304A
:1006A00009F0CDC0411103C0889A909A0895413055
:1006B00009F0C5C0889A909808958931D9F46111DC
:1006C0000BC0411103C08998919A0895413009F0F7
:1006D000B6C0899891980895613009F0B0C0411171
:1006E00003C0899A919A0895413009F0A8C0899A67
:1006F000919808958A31D9F461110BC0411103C05A
:100700008A98929A0895413009F099C08A989298EF
:100710000895613009F093C0411103C08A9A929AFA
:100720000895413009F08BC08A9A929808958B31D0
:10073000D9F461110BC0411103C08B98939A0895AD
:10074000413009F07CC08B9893980895613009F08E
:1007500076C0411103C08B9A939A0895413009F0F5
:100760006EC08B9A939808958C31D9F461110BC0A7
:10077000411103C08C98949A0895413009F05FC0EC
:100780008C9894980895613009F059C0411103C0C4
:100790008C9A949A0895413009F051C08C9A94989B
:1007A00008958D31C9F461110BC0411103C08D98BA
:1007B000959A0895413009F042C08D989598089512
:1007C0006130E9F5411103C08D9A959A0895413041
:1007D000B1F58D9A959808958E31C1F461110AC0D2
:1007E000411103C08E98969A0895413041F58E9834
:1007F00096980895613019F5411103C08E9A969A22
:1008000008954130E1F48E9A969808958F31B9F4A5
:1008100061110AC0411103C08F98979A0895413021
:1008200071F48F9897980895613049F4411103C08D
:100830008F9A979A0895413011F48F9A9798089556
:10084000883049F4611102C0C09A0895613009F0FE
:1008500047C0C0980895893041F4611102C0C19A1F
:1008600008956130E9F5C19808958A3041F4611125
:1008700002C0C29A0895613099F5C29808958B30EC
:1008800041F4611102C0C39A0895613049F5C398DB
:1008900008958C3041F4611102C0C49A089561300A
:1008A000F9F4C49808958D3041F4611102C0C59ADD
:1008B00008956130A9F4C59808958E3041F461110E
:1008C00002C0C69A0895613059F4C69808958F30D1
:1008D00039F4611102C0C79A0895613009F4C798CC
:1008E00008958F929F92AF92BF92CF92DF92EF9234
:1008F000FF926B017C0149015A0140E060E088E110
:100900000E94880040E061E089E10E948800D701F0
:10091000C601880F991FAA1FBB1F880F991FAA1F06
:10092000BB1F9C01AD01220F331F441F551F220F17
:10093000331F441F551FC501B4010E9491058FEF5D
:10094000820F215031091BB830BD89B98AB1886145
:100950008AB980B5866880BDFF90EF90DF90CF9018
:10096000BF90AF909F908F9008955F9BFECF8CB10A
:10097000089541E061E088E00E94880041E061E084
:1009800089E00E94880041E061E08AE00E948800DE
:1009900041E061E08BE00E94880041E061E080E09E
:1009A0000E94880041E060E081E00E94880020E031
:1009B00032E14AE750E060E875E280E090E00E94B2
:1009C00071040E94490060E089E00E944D00089592
:1009D00080916E008136A9F460E088E00E942004D6
:1009E00061E089E00E94200460E08AE00E94200427
:1009F00061E08BE00E94200460E08CE00E94200413
:100A000008958236A9F461E088E00E94200460E045
:100A100089E00E94200461E08AE00E94200460E0F6
:100A20008BE00E94200460E08CE00E942004089586
:100A30008336A9F461E088E00E94200460E089E048
:100A40000E94200460E08AE00E94200461E08BE0C4
:100A50000E94200460E08CE00E9420040895843607
:100A6000A9F460E088E00E94200461E089E00E942F
:100A7000200461E08AE00E94200460E08BE00E9494
:100A8000200460E08CE00E94200408958337A1F4E4
:100A900061E088E00E94200461E089E00E94200477
:100AA00061E08AE00E94200461E08BE00E94200463
:100AB00061E08CE00E94200408950E94B9042FEFA9
:100AC00089E698E1215080409040E1F700C00000A5
:100AD000F6CF1F920F920FB60F9211242F933F93D0
:100AE0004F935F936F937F938F939F93AF93BF9336
:100AF000EF93FF930E94B50480936E000E94E80478
:100B0000FF91EF91BF91AF919F918F917F916F91E5
:100B10005F914F913F912F910F900FBE0F901F90BB
:100B20001895A1E21A2EAA1BBB1BFD010DC0AA1F1E
:100B3000BB1FEE1FFF1FA217B307E407F50720F046
:100B4000A21BB30BE40BF50B661F771F881F991FC1
:100B50001A9469F760957095809590959B01AC010A
:0A0B6000BD01CF010895F894FFCF06
:00000001FF
